{
  "_format": "hh-sol-artifact-1",
  "contractName": "Launchpad",
  "sourceName": "contracts/Launchpad.sol",
  "abi": [
    {
      "inputs": [],
      "name": "ReentrancyGuardReentrantCall",
      "type": "error"
    },
    {
      "anonymous": false,
      "inputs": [
        {
          "indexed": true,
          "internalType": "uint256",
          "name": "projectId",
          "type": "uint256"
        },
        {
          "indexed": true,
          "internalType": "address",
          "name": "contributor",
          "type": "address"
        },
        {
          "indexed": false,
          "internalType": "uint256",
          "name": "amount",
          "type": "uint256"
        }
      ],
      "name": "Funded",
      "type": "event"
    },
    {
      "anonymous": false,
      "inputs": [
        {
          "indexed": true,
          "internalType": "uint256",
          "name": "projectId",
          "type": "uint256"
        },
        {
          "indexed": true,
          "internalType": "address",
          "name": "owner",
          "type": "address"
        },
        {
          "indexed": false,
          "internalType": "uint256",
          "name": "amount",
          "type": "uint256"
        }
      ],
      "name": "FundsWithdrawn",
      "type": "event"
    },
    {
      "anonymous": false,
      "inputs": [
        {
          "indexed": true,
          "internalType": "uint256",
          "name": "projectId",
          "type": "uint256"
        },
        {
          "indexed": true,
          "internalType": "address",
          "name": "owner",
          "type": "address"
        },
        {
          "indexed": false,
          "internalType": "uint256",
          "name": "goalAmount",
          "type": "uint256"
        },
        {
          "indexed": false,
          "internalType": "uint256",
          "name": "deadline",
          "type": "uint256"
        }
      ],
      "name": "ProjectCreated",
      "type": "event"
    },
    {
      "anonymous": false,
      "inputs": [
        {
          "indexed": true,
          "internalType": "uint256",
          "name": "projectId",
          "type": "uint256"
        },
        {
          "indexed": true,
          "internalType": "address",
          "name": "contributor",
          "type": "address"
        },
        {
          "indexed": false,
          "internalType": "uint256",
          "name": "amount",
          "type": "uint256"
        }
      ],
      "name": "RefundIssued",
      "type": "event"
    },
    {
      "inputs": [
        {
          "internalType": "uint256",
          "name": "_projectId",
          "type": "uint256"
        }
      ],
      "name": "contribute",
      "outputs": [],
      "stateMutability": "payable",
      "type": "function"
    },
    {
      "inputs": [
        {
          "internalType": "uint256",
          "name": "",
          "type": "uint256"
        },
        {
          "internalType": "address",
          "name": "",
          "type": "address"
        }
      ],
      "name": "contributions",
      "outputs": [
        {
          "internalType": "uint256",
          "name": "",
          "type": "uint256"
        }
      ],
      "stateMutability": "view",
      "type": "function"
    },
    {
      "inputs": [
        {
          "internalType": "string",
          "name": "_name",
          "type": "string"
        },
        {
          "internalType": "string",
          "name": "_description",
          "type": "string"
        },
        {
          "internalType": "uint256",
          "name": "_goalAmount",
          "type": "uint256"
        },
        {
          "internalType": "uint256",
          "name": "_duration",
          "type": "uint256"
        }
      ],
      "name": "createProject",
      "outputs": [],
      "stateMutability": "nonpayable",
      "type": "function"
    },
    {
      "inputs": [
        {
          "internalType": "uint256",
          "name": "_projectId",
          "type": "uint256"
        }
      ],
      "name": "getProject",
      "outputs": [
        {
          "components": [
            {
              "internalType": "address payable",
              "name": "owner",
              "type": "address"
            },
            {
              "internalType": "string",
              "name": "name",
              "type": "string"
            },
            {
              "internalType": "string",
              "name": "description",
              "type": "string"
            },
            {
              "internalType": "uint256",
              "name": "goalAmount",
              "type": "uint256"
            },
            {
              "internalType": "uint256",
              "name": "deadline",
              "type": "uint256"
            },
            {
              "internalType": "uint256",
              "name": "totalRaised",
              "type": "uint256"
            },
            {
              "internalType": "bool",
              "name": "fundsReleased",
              "type": "bool"
            }
          ],
          "internalType": "struct Launchpad.Project",
          "name": "",
          "type": "tuple"
        }
      ],
      "stateMutability": "view",
      "type": "function"
    },
    {
      "inputs": [
        {
          "internalType": "uint256",
          "name": "_projectId",
          "type": "uint256"
        }
      ],
      "name": "goalReachedTillNow",
      "outputs": [
        {
          "internalType": "uint256",
          "name": "",
          "type": "uint256"
        }
      ],
      "stateMutability": "view",
      "type": "function"
    },
    {
      "inputs": [],
      "name": "projectCount",
      "outputs": [
        {
          "internalType": "uint256",
          "name": "",
          "type": "uint256"
        }
      ],
      "stateMutability": "view",
      "type": "function"
    },
    {
      "inputs": [
        {
          "internalType": "uint256",
          "name": "",
          "type": "uint256"
        }
      ],
      "name": "projects",
      "outputs": [
        {
          "internalType": "address payable",
          "name": "owner",
          "type": "address"
        },
        {
          "internalType": "string",
          "name": "name",
          "type": "string"
        },
        {
          "internalType": "string",
          "name": "description",
          "type": "string"
        },
        {
          "internalType": "uint256",
          "name": "goalAmount",
          "type": "uint256"
        },
        {
          "internalType": "uint256",
          "name": "deadline",
          "type": "uint256"
        },
        {
          "internalType": "uint256",
          "name": "totalRaised",
          "type": "uint256"
        },
        {
          "internalType": "bool",
          "name": "fundsReleased",
          "type": "bool"
        }
      ],
      "stateMutability": "view",
      "type": "function"
    },
    {
      "inputs": [
        {
          "internalType": "uint256",
          "name": "_projectId",
          "type": "uint256"
        }
      ],
      "name": "refund",
      "outputs": [],
      "stateMutability": "nonpayable",
      "type": "function"
    },
    {
      "inputs": [
        {
          "internalType": "uint256",
          "name": "_projectId",
          "type": "uint256"
        }
      ],
      "name": "timeRemaining",
      "outputs": [
        {
          "internalType": "uint256",
          "name": "",
          "type": "uint256"
        }
      ],
      "stateMutability": "view",
      "type": "function"
    },
    {
      "inputs": [
        {
          "internalType": "uint256",
          "name": "_projectId",
          "type": "uint256"
        }
      ],
      "name": "withdrawFunds",
      "outputs": [],
      "stateMutability": "nonpayable",
      "type": "function"
    }
  ],
  "bytecode": "0x608060405234801561001057600080fd5b506001600055611158806100256000396000f3fe6080604052600436106100915760003560e01c806394ba97091161005957806394ba970914610170578063c1cbbca714610190578063d973be95146101a3578063ea3d9020146101c3578063f0f3f2c8146101e357600080fd5b8063107046bd14610096578063155dd5ee146100d2578063278ecde1146100f457806336fbad26146101145780633d891f5914610138575b600080fd5b3480156100a257600080fd5b506100b66100b1366004610cb8565b610210565b6040516100c99796959493929190610d17565b60405180910390f35b3480156100de57600080fd5b506100f26100ed366004610cb8565b61036a565b005b34801561010057600080fd5b506100f261010f366004610cb8565b61058c565b34801561012057600080fd5b5061012a60035481565b6040519081526020016100c9565b34801561014457600080fd5b5061012a610153366004610d76565b600260209081526000928352604080842090915290825290205481565b34801561017c57600080fd5b506100f261018b366004610e55565b61074c565b6100f261019e366004610cb8565b6108e4565b3480156101af57600080fd5b5061012a6101be366004610cb8565b610a36565b3480156101cf57600080fd5b5061012a6101de366004610cb8565b610a7e565b3480156101ef57600080fd5b506102036101fe366004610cb8565b610ac1565b6040516100c99190610ec9565b6001602081905260009182526040909120805491810180546001600160a01b039093169261023d90610f4c565b80601f016020809104026020016040519081016040528092919081815260200182805461026990610f4c565b80156102b65780601f1061028b576101008083540402835291602001916102b6565b820191906000526020600020905b81548152906001019060200180831161029957829003601f168201915b5050505050908060020180546102cb90610f4c565b80601f01602080910402602001604051908101604052809291908181526020018280546102f790610f4c565b80156103445780601f1061031957610100808354040283529160200191610344565b820191906000526020600020905b81548152906001019060200180831161032757829003601f168201915b505050506003830154600484015460058501546006909501549394919390925060ff1687565b60008181526001602052604090205481906001600160a01b031633146103cf5760405162461bcd60e51b81526020600482015260156024820152742737ba103a343290383937b532b1ba1037bbb732b960591b60448201526064015b60405180910390fd5b600082815260016020526040902060040154829042101561042d5760405162461bcd60e51b815260206004820152601860248201527746756e6472616973696e67207374696c6c2061637469766560401b60448201526064016103c6565b610435610c8e565b60008381526001602052604090206003810154600582015410156104925760405162461bcd60e51b8152602060048201526014602482015273119d5b991a5b99c819dbd85b081b9bdd081b595d60621b60448201526064016103c6565b600681015460ff16156104e75760405162461bcd60e51b815260206004820152601760248201527f46756e647320616c72656164792077697468647261776e00000000000000000060448201526064016103c6565b60068101805460ff19166001179055805460058201546040516001600160a01b039092169181156108fc0291906000818181858888f19350505050158015610533573d6000803e3d6000fd5b50805460058201546040519081526001600160a01b039091169085907ff440aec6b52895984d061d622e6edeba6210f7c3e059be920663140c084560d79060200160405180910390a3506105876001600055565b505050565b60008181526001602052604090206004015481904210156105ea5760405162461bcd60e51b815260206004820152601860248201527746756e6472616973696e67207374696c6c2061637469766560401b60448201526064016103c6565b6105f2610c8e565b600082815260016020526040902060038101546005820154106106575760405162461bcd60e51b815260206004820152601c60248201527f46756e64696e6720676f616c206d65742c206e6f20726566756e64730000000060448201526064016103c6565b6000838152600260209081526040808320338452909152902054806106be5760405162461bcd60e51b815260206004820152601960248201527f4e6f20636f6e747269627574696f6e20746f20726566756e640000000000000060448201526064016103c6565b600084815260026020908152604080832033808552925280832083905551909183156108fc02918491818181858888f19350505050158015610704573d6000803e3d6000fd5b50604051818152339085907f7a482fdeb6bc9a1376f597068a214a7a39472bb2eff1b8cad21ba04f49ddca1b9060200160405180910390a350506107486001600055565b5050565b600082116107a75760405162461bcd60e51b815260206004820152602260248201527f476f616c20616d6f756e74206d7573742062652067726561746572207468616e604482015261020360f41b60648201526084016103c6565b600380549060006107b783610f9c565b91905055506040518060e00160405280336001600160a01b0316815260200185815260200184815260200183815260200182426107f49190610fb5565b81526000602080830182905260409283018290526003548252600180825292909120835181546001600160a01b0319166001600160a01b039091161781559083015190918201906108459082611016565b506040820151600282019061085a9082611016565b5060608201516003828101919091556080830151600483015560a0830151600583015560c0909201516006909101805460ff19169115159190911790555433907fb5d890eb2df709d2f732ed81f328b444e49c1618ed8d64c53c0a040ec4040e1e846108c68542610fb5565b6040805192835260208301919091520160405180910390a350505050565b6000818152600160205260409020600401548190421061093a5760405162461bcd60e51b8152602060048201526011602482015270119d5b991c985a5cda5b99c8195b991959607a1b60448201526064016103c6565b610942610c8e565b6000341161099e5760405162461bcd60e51b815260206004820152602360248201527f436f6e747269627574696f6e206d75737420626520677265617465722074686160448201526206e20360ec1b60648201526084016103c6565b6000828152600160205260408120600581018054919234926109c1908490610fb5565b90915550506000838152600260209081526040808320338452909152812080543492906109ef908490610fb5565b9091555050604051348152339084907f38c48552690c96ec2872092ac1db6c19fb59f5a8c5b49bbf41ed4886d0ca69269060200160405180910390a3506107486001600055565b600081815260016020526040812060038101548203610a585750600092915050565b60038101546005820154610a6d9060646110d6565b610a7791906110ed565b9392505050565b6000818152600160205260408120600401544210610a9e57506000919050565b600082815260016020526040902060040154610abb90429061110f565b92915050565b610b0c6040518060e0016040528060006001600160a01b0316815260200160608152602001606081526020016000815260200160008152602001600081526020016000151581525090565b600082815260016020818152604092839020835160e0810190945280546001600160a01b03168452918201805491840191610b4690610f4c565b80601f0160208091040260200160405190810160405280929190818152602001828054610b7290610f4c565b8015610bbf5780601f10610b9457610100808354040283529160200191610bbf565b820191906000526020600020905b815481529060010190602001808311610ba257829003601f168201915b50505050508152602001600282018054610bd890610f4c565b80601f0160208091040260200160405190810160405280929190818152602001828054610c0490610f4c565b8015610c515780601f10610c2657610100808354040283529160200191610c51565b820191906000526020600020905b815481529060010190602001808311610c3457829003601f168201915b505050918352505060038201546020820152600482015460408201526005820154606082015260069091015460ff16151560809091015292915050565b600260005403610cb157604051633ee5aeb560e01b815260040160405180910390fd5b6002600055565b600060208284031215610cca57600080fd5b5035919050565b6000815180845260005b81811015610cf757602081850181015186830182015201610cdb565b506000602082860101526020601f19601f83011685010191505092915050565b6001600160a01b038816815260e060208201819052600090610d3b90830189610cd1565b8281036040840152610d4d8189610cd1565b9150508560608301528460808301528360a083015282151560c083015298975050505050505050565b60008060408385031215610d8957600080fd5b8235915060208301356001600160a01b0381168114610da757600080fd5b809150509250929050565b634e487b7160e01b600052604160045260246000fd5b600082601f830112610dd957600080fd5b813567ffffffffffffffff80821115610df457610df4610db2565b604051601f8301601f19908116603f01168101908282118183101715610e1c57610e1c610db2565b81604052838152866020858801011115610e3557600080fd5b836020870160208301376000602085830101528094505050505092915050565b60008060008060808587031215610e6b57600080fd5b843567ffffffffffffffff80821115610e8357600080fd5b610e8f88838901610dc8565b95506020870135915080821115610ea557600080fd5b50610eb287828801610dc8565b949794965050505060408301359260600135919050565b602080825282516001600160a01b03168282015282015160e06040830152600090610ef8610100840182610cd1565b90506040840151601f19848303016060850152610f158282610cd1565b91505060608401516080840152608084015160a084015260a084015160c084015260c0840151151560e08401528091505092915050565b600181811c90821680610f6057607f821691505b602082108103610f8057634e487b7160e01b600052602260045260246000fd5b50919050565b634e487b7160e01b600052601160045260246000fd5b600060018201610fae57610fae610f86565b5060010190565b80820180821115610abb57610abb610f86565b601f82111561058757600081815260208120601f850160051c81016020861015610fef5750805b601f850160051c820191505b8181101561100e57828155600101610ffb565b505050505050565b815167ffffffffffffffff81111561103057611030610db2565b6110448161103e8454610f4c565b84610fc8565b602080601f83116001811461107957600084156110615750858301515b600019600386901b1c1916600185901b17855561100e565b600085815260208120601f198616915b828110156110a857888601518255948401946001909101908401611089565b50858210156110c65787850151600019600388901b60f8161c191681555b5050505050600190811b01905550565b8082028115828204841417610abb57610abb610f86565b60008261110a57634e487b7160e01b600052601260045260246000fd5b500490565b81810381811115610abb57610abb610f8656fea26469706673582212200cef293d3909d8f3b6a4a8cb5f6bcf30e1e1e0ee392cf636ccd1f11795523c7f64736f6c63430008140033",
  "linkReferences": {},
  "deployedLinkReferences": {}
}